:020000040800F2
:2000000000500020CD4601086D470108B53001086D4701086D4701086D4701080000000072
:200020000000000000000000000000006D4701086D470108000000006D4701084F0E010823
:200040006D4701086D4701086D4701086D4701086D4701086D470108ADA50008A9A5000882
:200060006D4701086D4701086D4701086D4701086D4701086D47010875A900086D4701082F
:2000800041BF00086D4701086D4701086D4701086D4701086D4701086D470108A5A5000898
:2000A0006D47010839BE00086D47010849BE000829BE000819BE000809BE0008815C000836
:2000C000855C0008795C00087D5C00086D4701086D4701086DA9000865A900085DA90008BD
:2000E0005D0E01086D4701086D470108000000000000000000000000000000000000000012
:2001000000000000000000005FF808F1FFFFFFFF2DE9F04F764B774EA3B0336000237360DC
:200120000FF063FA18B90FF081FA07F0EFFE07F0B7FF714A714C1378714D43F0010313700C
:2001400000230A930B930C934FF4E0130D932368A87B43F480332360A36943F01003A3615B
:20016000236803F400330B930A9B01330A930B9B1BB90A9BB3F5A06FF2D123685F4913F4E3
:20018000003301D0022315E00A6842F001020A600A93236803F002030B930A9B01330A93FC
:2001A0000B9B1BB90A9BB3F5A06FF2D123689B0739D501230C93534B53491A6842F01002A8
:2001C0001A601A6822F003021A601A6842F002021A606368636063686360636843F480635F
:2001E00063604A4B1A68043B22F070425A60484A1160616821F47C116160596841F0004106
:200200005960D96821F40041D9609B681F0449BF404B4FF4E01313604FF480130D930C9BD6
:20022000012B01D117E0FEE7022B18D168B10D9BB3F5801F02D14FF4A01305E00D9BB3F5C8
:20024000E01F02D14FF400130D930D9963680B4343F4803302E0636843F460136360236888
:2002600043F0807323602168244B8901FBD5596821F003015960596841F00201596063687B
:200280001E4903F00C03082BF9D14B68DFF8908003F00C03042B03D0082B03D01A4B12E0FD
:2002A000136810E04B684868C3F38343C70303F1020301D4184905E0496811F4003F1168A8
:2002C00018BF49084B43C8F8003063681349C3F303130B4493F87810D8F80030CB40C8F858
:2002E00000301368084A93421CD101221EE000BF53770008D0000020603300200010024098
:20030000A41000200020024000127A000410014040000020001BB70000093D006092010853
:20032000580000208A4A934202D10222894B1A70DFF878A2884BDFF878C2CAF80C30A36968
:200340000DF1880B43F00103A361636A834FB360636A604643F080736362A3694FF000096D
:2003600043F01C03A3614FF6FF732BF82C3D5946CDF80CC08DF85E900BF0EDFE384659463E
:200380000BF0E9FE594676480BF0E5FE754A5846536843F0007353600EF09EF9724A179BCC
:2003A0004946B3FBF2F3714A714813600C2216F072FCD8F800304FF47A72B3FBF2F36D4A19
:2003C000013B5360F0238AF823300723C2F808901360AB68DFF8DC91DFF8DC81C9F80030DB
:2003E00098E80F008BE80F00A3694FF0100A43F00803A361A369179843F00803A36108231D
:200400003B6118A9C7F810A00BF0A5FE19981AA90BF0A1FED9F80020100713D5564B93F848
:200420008E21012A0ED8554993F88F21896811F0805300F0F48505E04F4B002283F88F2129
:2004400008F002F8642010F0F8FCA0224C48002116F021FCE369002243F00703E361A3699D
:2004600043F4006343F00C03A361444B4FF0000803F10C0102F8018001320E2AF5D1FF22F8
:200480009A76DA761A775A773E4B3F4A41461A603E483C22D9F8004016F0FDFB4146C4F356
:2004A000801705233A4ADFF8E4E0885C0C224A4302F80E0047B91E3801289FBFFF2003F1C7
:2004C000FF3302F80E00DBB201310529EAD1314A95F805A01370304B304983F800A0304B80
:2004E000264A3362C0330B602E4BA10603EBCA035B7848BF01235362002340F2DC512A4A15
:2005000022F813100133082BF7D110A800211C2216F0C1FB14F4007CDFF8A09004F40068AB
:200520004ED0A3040AD4B8F1000F0AD095F8822109F10C03012A08BF4B4604E0CDF8109081
:2005400002E009F10C030493CDF858B03AE000BF001BB7008B3300200005FA05000C014072
:20056000001001400000014040420F00802C0020842C002010E000E0A4100020D000002028
:20058000D42C00207C290020941200208029002081C4010879100020B0080020F02D0020DB
:2005A000B41000201CBB0108E00F002000ED00E000080140102E0020E89201086092010876
:2005C000CDF810C0BAF10E0F04D00AF0EF0ABAF1080F02D101238DF852300120CDF814C07D
:2005E00008F038FCDDF814C018B14088003018BF0120C4F340038DF84630C4F3403300F05E
:2006000001008DF84030C4F3C0338DF845008DF848708DF84330B8F1000F07D095F882811C
:2006200008F1FF37D7F1000848EB0708C4F300438DF849301CF1000318BF01238DF84A3077
:20064000736AB5F84401003318BF01238DF84B30C4F300538DF84C30B5F8463104F0010178
:20066000ADF85030B5F85231C4F3C002ADF84E30C4F38043E404ADF8560048BFB6488DF8A2
:20068000473048BFB0F84C01B5F8503148BFADF85600B3F5FA7FADF8543084BF0023ADF862
:2006A000563095F8D231AD4886F82830002386F8293043709DF852308DF84480002B8DF89C
:2006C00041108DF842200CBF0023022301B902B1013309EB8309D9F898309A1E1A33079376
:2006E000002306920593069B33F8024F06934FF6FF739C4200F08E819DF84520E3B2240AA0
:20070000E5B21AB19A1E012A40F27F819DF8482032B193491A018958924A914200F0758115
:200720009DF8490030B18E491A0189588D4A914200F06B819DF8462052B18949039E01EB44
:2007400003114A68B24203D10A89102A00F05D819DF8432052B18249039E01EB03114A6857
:20076000B24203D10A89022A00F04F819DF8442052B17B497C4E01EB03114A68B24203D12E
:200780000A89022A00F04181169E7EB1744F326807EB03177968914208D13A89B188914240
:2007A00000F03381F188914200F02F81022C02D19DF8402003E0012C04D19DF84120002AAE
:2007C00000F023819DF84B20654C1E015AB19DF8522042B9A3F10802012A04D8A25963495C
:2007E0008A4208BF04259DF84C20344452B19DF852203AB910B10C3B012B01E0043B032B45
:2008000040F2EB80012D48D1594FDFF854A1FF2387F8703087F871300AEB06035A7B58688C
:2008200003F108091B894FF00008ADF85C3017A9022387F87480C7F880408DF85F308DF827
:200840005E2087F82C80C7F83080C7F83480C7F83880C7F86C8087F8728087F873800BF00D
:200860007AFC5AF8060099F80210424609F0EBFC204641462A4609F0CDFF3E4BC7F88C8029
:20088000C7F884303C4B2046C7F8883007F1840107F188020AF006F8B7E0022D4CD19DF812
:2008A00014204FF01C0C0CFB02FC314B002703EB0C0808939DF814304FF0010988F8753011
:2008C000274B88F876709A19517B506802F1080A12898DF85E1088F87E7017A988F87490C4
:2008E000C8F88040CDF824C0ADF85C208DF85F500BF031FC1A4B9AF8021098593A4609F0DF
:20090000A2FC204639464A4609F084FF1B49089BDDF824C0C8F8841019496344C8F88810D3
:2009200003F18401C8F88C7020460A1D09F0BAFF059B4B44059368E0032D4CD19DF84730DB
:200940000B4D104E03B395F82A70204608214FF6FF72002333E000BFA4100020F9000020DD
:2009600078B5010800040040000C0140002C0140D0000020B59C0008959D000881A2000895
:200980008B9C0008A02C0020BDF8542095F82A70B2F5FA7FBDF856300BD986492046B1FBCC
:2009A000F2F2082192B209F0A3FC834B46F827000AE082492046B1FBF2F2012192B209F011
:2009C00097FC7F4B46F82700C36095F82A30013385F82A3019E0042D17D1BDF84E20774B49
:2009E000784D93FBF2F22046BDF85030012192B295F8296009F07CFC95F8293005EB8606D6
:200A00000133C6F8540185F82930069B079A93427FF469AE6B4E6C4F96F82930002486F81B
:200A200074316A4B3C701D78A5F11703022B18D8336A0021185903EB040812F0F7FD10B16E
:200A4000736A6BBB25E0624B04EB030E98E80F008EE80F003B7810340133C02C3B70E7D153
:200A6000EEE75C4B13F835C003EBC503D3F8048087F800C0B8F1000FE2D06445E0DA544A4B
:200A8000230103EB020E43440FCB01348EE80F00F3E7514B1A68984612F4805F26D11FE068
:200AA0004E4B4F4A13F8350003EBC5035C681070002CEED000238342EBDAC3EBC301621847
:200AC000D2F80080DFF840C1013341F80C8001EB0C0E9188AEF8041092798EF80620EAE79A
:200AE00005F0EF03082B3F4B24D125E03B78012BF6D93D4C04EB031303F110071034BC42CF
:200B0000EED054F8100C4FF07C5112F0FBFB4FF07C5144F8100C54F8140C12F0F3FB4FF0AC
:200B20007C5144F8140C54F80C0C12F0EBFB44F80C0CE3E70E2D08D11A78182D42F01002F3
:200B40001A7008D110F04AFC05E01A78192D22F010021A70F5E710F025FCD8F80030234F12
:200B600058035EBF224B01221A70224A224D1378224843F0040313703B784FF48052022B61
:200B800034BF142310238DF85E304FF002038DF85F30AB69ADF85C2043F00403AB6134BF1F
:200BA0000024012417A90BF0D6FA154B74B3154A2DE000BF00127A00B59D000840420F0038
:200BC000A59D0008D0000020D02C0020B0080020EC0700201CBB0108102E0020A8A3010842
:200BE0007C2D00209C180020F40700208B330020180D0020603300200010024000080140CC
:200C000070330020410D01087D2D0020724A00201A6010F031F9714B714C93E80300AB6965
:200C20008BE8030043F00803AB61179818A90BF092FAEB694FF0030A43F48043EB612B6983
:200C4000204643F480432B6118238DF85E3059464FF42043ADF85C308DF85FA00BF07BFAF0
:200C60004FF0040C4FF48043204659468DF85EC0CDF80CC04FF48059ADF85C300BF06BFA39
:200C80001023204659468DF85E30ADF85C900BF062FA2B69322043F480432B612B6923F40A
:200CA00080432B614F4B1A8802F4415242F4457242EA0A021A80998B072221F40061090491
:200CC000090C99831A821A8892B242F040021A809F23C4F810908DF83C3000238DF83D302F
:200CE0008DF83E308DF83F3010F0A7F8DDF80CC0C4F81490624658460FA910F05FFCC4F858
:200D000010909DF85E309DF85D201B0243EA02439DF85F201343344A934214D0322010F07C
:200D20008CF8C4F81490F52010F07EFCFF2010F07BFC7028C4F8109005D13B78022B04BF3D
:200D40002A4B83F800A03B78032B0CBF1F20022008F003F83B78032B03D001200BF04CFCEB
:200D600007E0022008F076F80028F6D04388002BF3D0D8F800404FF0100904F40043039324
:200D800004F4006305931A4B002118464A46069397F800B015F07FFF4FF6FF72069BADF895
:200DA0003C2002224FF0000A14EA02018DF83E208DF83FA01C461FD022A921F84C9D0D48AF
:200DC0000DF0DAFC042323700722012384F801A0A370E2709A4610E0550D010808930108D8
:200DE000000C014000380040152020008B330020E8290020000801408A46BBF1010F12D90A
:200E0000202222A921F84C2D9F480DF0B5FC052201232272A3720AF10102072384F809A05D
:200E2000E3725FFA82FA039B8BB122A9022221F84C2D95480DF0A0FC01220AEB0201072372
:200E400084F805A02271A271E3715FFA81FA059B93B1022222A921F84C2D8C480DF08CFCE5
:200E6000092201232273A3730AF10102072384F80DA0E3735FFA82FA6A68854842F44042A5
:200E80006A606A69DFF8089242F001026A61AA6942F40072AA610DF029FD7E4A00251792C5
:200EA0007D4ABAF1010F189294BF2A4680221C924FF480721D924FF480621E92202248466A
:200EC0001F9217A94FF4005220921995CDF868A01B9521950DF0ECFCD9F800206F4942F0B9
:200EE0000102C9F800204A68BAF1010F22F4702294BF0020012022F4807242EA00224A6065
:200F00008868674A0AF1FF33024042F4602242F002028A60CA6ADBB222F4700242EA03531E
:200F2000CB62012362199178002963D0605D591C0928C9B2D278DFF864C112D9A0F10A0EC8
:200F4000DCF80CA00EEB4E0E4FF0070909FA0EF92AEA090902FA0EF249EA0202CCF80C201A
:200F60000FE0DCF8109000EB400A4FF0070E0EFA0AFE29EA0E0E02FA0AF24EEA0202CCF84E
:200F80001020062BDFF814E110D8013BDEF8342003EB83034FF01F0C0CFA03FC22EA0C02D9
:200FA00000FA03F31343CEF8343022E00C2B10D8073BDEF8302003EB83034FF01F0C0CFA54
:200FC00003FC22EA0C0200FA03F31343CEF830300FE0A3F10D02DEF82C9002EB82021F23B5
:200FE000934029EA030C00FA02F34CEA0303CEF82C300B460435102D94D1284B9A6842F4D8
:00000001FF
